:020000040800F2
:10000000582800202902000833140008391300087A
:10001000311400085105000899170008000000007D
:10002000000000000000000000000000371400087D
:1000300053050008000000003514000839140008BA
:10004000430200084302000843020008430200087C
:10005000430200084302000843020008430200086C
:10006000430200084302000843020008430200085C
:10007000430200084302000843020008430200084C
:10008000430200084302000843020008430200083C
:10009000430200084302000843020008430200082C
:1000A000430200084302000843020008430200081C
:1000B000430200084302000843020008430200080C
:1000C00043020008430200084302000843020008FC
:1000D0004302000843020008430200088117000899
:1000E00043020008430200084302000843020008DC
:1000F00043020008430200084302000843020008CC
:1001000043020008430200084302000843020008BB
:1001100043020008430200084302000843020008AB
:10012000430200084302000843020008430200089B
:10013000430200084302000843020008430200088B
:10014000430200084302000843020008430200087B
:100150004302000843020008430200088D1700080C
:10016000430200084302000843020008430200085B
:100170004302000843020008430200080000000098
:10018000430200084302000800F002F800F03CF8C7
:100190000AA090E8000C82448344AAF10107DA45E2
:1001A00001D100F031F8AFF2090EBAE80F0013F0F8
:1001B000010F18BFFB1A43F0010318472C1C000065
:1001C0004C1C0000103A24BF78C878C1FAD85207F6
:1001D00024BF30C830C144BF04680C6070470000C1
:1001E0000023002400250026103A28BF78C1FBD840
:1001F000520728BF30C148BF0B6070471FB501F0E0
:1002000057FC1FBD10B510BD00F06DF91146FFF78A
:10021000F5FF01F011FB00F08BF903B4FFF7F2FFDB
:1002200003BC00F08FF900000948804709480047E7
:10023000FEE7FEE7FEE7FEE7FEE7FEE7FEE7FEE796
:10024000FEE7FEE704480549054A064B70470000F3
:10025000D1140008890100085808002058280020FF
:10026000581800205818002053EA020C00F069804A
:100270002DE9F04B4FF00006002B1FBFB3FA83F5BA
:1002800003FA05F424FA05F65E4012BF1643B2FAEB
:1002900082F502FA05F4C5F120051EBF22FA05FC1D
:1002A00044EA0C04203556EA044C4FEA144418BFC3
:1002B000641C4FF000084FF00009904271EB030CF2
:1002C00039D3002919BFB1FA81F701FA07F6B0FA5C
:1002D00080F700FA07F6C7F120071EBF20FA07FCD7
:1002E00046EA0C062037B6FBF4FCA7EB0507103FE7
:1002F00007F01F0BCBF120060CFA0BFB2CFA06F6CD
:1003000044BFB3460026202FA4BF5E464FF0000B2B
:100310005BEA060C08BF4FF0010B19EB0B09ABFBB6
:10032000027C48EB0608C01B06FB02CC0BFB03CC8F
:1003300071EB0C01C1E70B46024641464846BDE859
:10034000F08B13B54FF000004FF00001AFF30080C9
:10035000BDE81C407047032A40F2308010F0030CC7
:1003600000F0158011F8013BBCF1020F624498BF08
:1003700011F801CB00F8013B38BF11F8013BA2F1A5
:10038000040298BF00F801CB38BF00F8013B11F020
:10039000030300F07180083AC0F0088051F8043B74
:1003A000083A51F804CBA0E80810F5E7121D5CBF2D
:1003B00051F8043B40F8043BAFF30080D20724BF60
:1003C00011F8013B11F801CB48BF11F8012B24BFF4
:1003D00000F8013B00F801CB48BF00F8012B704743
:1003E0004FF000020429C0F0128010F0030C00F05E
:1003F0001B80CCF1040CBCF1020F18BF00F8012BDC
:10040000A8BF20F8022BA1EB0C0100F00DB85FEAA9
:10041000C17C24BF00F8012B00F8012B48BF00F875
:10042000012B70474FF0000200B5134694469646E4
:10043000203922BFA0E80C50A0E80C50B1F12001F7
:10044000BFF4F7AF090728BFA0E80C5048BF0CC0A5
:100450005DF804EB890028BF40F8042B08BF704703
:1004600048BF20F8022B11F0804F18BF00F8012B75
:10047000704770477047704710B5203AC0F00B8046
:10048000B1E81850203AA0E81850B1E81850A0E898
:100490001850BFF4F5AF5FEA027C24BFB1E81850F2
:1004A000A0E8185044BF18C918C0BDE810405FEA62
:1004B000827C24BF51F8043B40F8043B08BF7047DE
:1004C000D20728BF31F8023B48BF11F8012B28BFE3
:1004D00020F8023B48BF00F8012B704700487047E6
:1004E000F807002070477546FFF7F8FFAE46050095
:1004F0006946534620F00700854618B020B5FFF73F
:10050000A1FEBDE820404FF000064FF000074FF07D
:1005100000084FF0000B21F00701AC46ACE8C00921
:10052000ACE8C009ACE8C009ACE8C0098D4670472A
:1005300010B50446AFF300802046BDE81040FFF739
:100540006CBE000001491820ABBEFEE72600020089
:10055000FEE7704772B6FEE72DE9F0410446876D6D
:1005600000F066F9064694F835000025022806D00A
:100570008020606584F834500120BDE8F081206857
:10058000016821F0160101602068416921F08001B5
:100590004161206C08B9A06C20B12068016821F08D
:1005A000080101602068016821F0010101600CE090
:1005B00000F03EF9801B052807D920206065032044
:1005C00084F8350084F83450D7E720680068C00705
:1005D000EED194F85C103F208840B860012084F888
:1005E000350084F834500020C7E790F83510022910
:1005F00003D08021416501207047052180F8351026
:100600000068016821F001010160002070470000CE
:1006100070B5044600F00CF90546601C02D0044891
:100620000078044400F004F9401BA042FAD370BDE6
:10063000140000202DE9F84FDFF8BCA100220125AD
:1006400003264FF00F090AF1040BAAF1040E00BFB4
:100650000B6805FA02F42340A34270D10F7907F02A
:100660000307012F01D0022F16D187684FEA4208F5
:1006700006FA08FC27EA0C07D1F80CC00CFA08FCB3
:100680004CEA070CC0F808C04768A7430C79C4F3CC
:10069000001494403C4344600C79E443A4070AD01E
:1006A000C4684FEA420C06FA0CF7BC438F6807FA9D
:1006B0000CF72743C7600C7904F00304022C12D115
:1006C000D40800EB840CDCF820405707FF0E09FA31
:1006D00007F824EA0804D1F8108008FA07F848EA75
:1006E0000408CCF8208004684FEA420C06FA0CF7A4
:1006F000BC430F7907F0030707FA0CF7274307609D
:100700004C6814F4403F70D03C4C276847F4804755
:100710002760246822F0030704F480440094384CD6
:1007200007EB040CDCF8084897074FEA177809FA3A
:1007300008F7BC43334FB84202D1002724E054E00D
:10074000314FB84201D101271EE0304FB84201D1EC
:10075000022719E02E4FB84201D1032714E02D4F94
:10076000B84201D104270FE02B4FB84201D1052731
:100770000AE02A4FB84201D1062705E0284FB842C7
:1007800001D1072700E0082707FA08F72743CCF82C
:100790000878DAF800405746D1F804C09C435FEA75
:1007A000CC2C00D51C433C60DBF800405F46D1F800
:1007B00004C09C435FEA8C2C00D51C433C60DEF8EF
:1007C00000407746D1F804C09C435FEA8C3C00D5DA
:1007D0001C433C60084F083F3C68D1F804C09C4370
:1007E0005FEACC3C00D51C433C60521C102AFFF44D
:1007F0002FAFBDE8F88F0000083C014044380240AC
:1008000000300140000002400004024000080240A5
:10081000000C024000100240001402400018024088
:10082000001C02400069084000D001207047000011
:100830000148806870470000140000200248816869
:100840000278114481607047140000200B4810B5F5
:10085000016841F400710160016841F48061016048
:10086000016841F480710160032000F06FF80F20EF
:1008700000F006F800F024F8002010BD003C024013
:1008800070B50D4D04464FF47A712878B1FBF0F045
:100890000A490968B1FBF0F000F00CFB48B9102CD4
:1008A00007D200222146501E00F030F800206C6074
:1008B00070BD012070BD0000140000202000002049
:1008C0000A4808B5016841F480410160006800F4FD
:1008D000804000900548001F016841F08051016090
:1008E000006800F08050009008BD000044380240CD
:1008F000002809DB00F01F0201219140400980001F
:1009000000F1E020C0F8001170470000F0B40E4B79
:100910001B680C46C3F30223C3F10705042D00D95D
:100920000425191D072901D2002300E0DB1E012642
:1009300006FA05F1491E214099409E40761E164058
:100940003143F0BC00F029BF0CED00E0064900F097
:10095000070208684FF6FF03184040EA0220034AE6
:1009600010430860704700000CED00E00000FA053D
:100970002DE9F0470E46050065D0DFF81481D8F860
:100980000000F7B200F00700B04207D288F800700C
:10099000D8F8000000F00700B04254D128683D4C60
:1009A000810712D5400703D5206840F4E05020604D
:1009B0002878000703D5206840F460402060206854
:1009C000A96820F0F000084320602878C0072DD0E7
:1009D000304968680839012812D0022813D003284A
:1009E00011D00968890700292DDA216821F0030157
:1009F00001432160FFF71CFF814641F2883A0EE077
:100A000009688903EFE709688901ECE7FFF710FF40
:100A1000A0EB0901514502D90320BDE8F087206809
:100A2000696800F00C00B0EB810FEFD1D8F800102E
:100A3000404601F00701B14207D90770006800F095
:100A40000700B04201D00120E7E72878400705D52C
:100A50002068E96820F4E050084320602878000707
:100A600006D52068296920F4604040EAC100206072
:100A700000F038F82168084AC1F30311515CC840FE
:100A80000649086006480068FFF7FAFE0020C4E740
:100A9000003C024008380240CE1A00082000002026
:100AA000180000200448054900680968044AC1F399
:100AB0008221515CC8407047200000200838024065
:100AC000DE1A00080448054900680968044AC1F3B1
:100AD0004231515CC8407047200000200838024075
:100AE000DE1A0008154810B5006810F00C02144812
:100AF00013D01449042A0FD0082A0ED10F4C241FFA
:100B00002268236802F03F025B0207D52068C0F329
:100B10008810A0FB010106E0084610BD2168C1F362
:100B20008811A1FB00010023FFF79EFB2168C1F3A0
:100B30000141491C4900B0FBF1F010BD08380240EA
:100B40000024F400001BB7002DE9F84F04006ED01C
:100B50002078DFF84C93C007A9F104054AD009F1C9
:100B600004000168C1F38101012908D00068C0F3C5
:100B7000810002280AD1D9F80000400206D5286871
:100B8000800337D560680028E1D033E06068B0F5B5
:100B9000803F10D0B0F5A02F286810D020F480300E
:100BA0002860286820F4802028606068A8B1FFF7DA
:100BB0003FFE06460DE0286840F48030F4E740F43C
:100BC00080202860F7E700BFFFF732FE801B642813
:100BD00073D828688003F7D50CE0FFF729FE064696
:100BE00005E000BFFFF724FE801B6428F0D82868CA
:100BF0008003F7D42078DFF8AC8280074FF0000A3A
:100C00003ED5A748001D016811F00C0F08D0006800
:100C1000C0F3810002280BD1D9F80000400207D4AC
:100C20002868800716D5E068012800D112E033E17A
:100C3000E068B8B10120C8F80000FFF7F9FD0646EA
:100C400005E000BFFFF7F4FD801B0228C0D828682C
:100C50008007F7D52868216920F0F80040EAC10034
:100C600028600DE0C8F800A0FFF7E2FD064604E0AA
:100C7000FFF7DEFD801B02281FD828688007F7D405
:100C80002078000722D5864F87486169703771B197
:100C900001210160FFF7CCFD064604E0FFF7C8FD27
:100CA000801B022809D838688007F7D50EE0C0F805
:100CB00000A0FFF7BDFD064605E082E0FFF7B8FDA6
:100CC000801B02287DD838688007F7D42078400739
:100CD00068D5DFF8CCB100270BF13C0BDBF8000046
:100CE000C0000BD4DBF8001041F08051CBF80010AD
:100CF000DBF80000012700F0805000906B4E306858
:100D0000C00510D4306840F480703060FFF790FD6B
:100D1000009005E0FFF78CFD0099401A022850D89A
:100D20003068C005F6D55E4EA0686C3601280FD03D
:100D30000528306810D020F001003060306820F0C5
:100D400004003060A068B8B1FFF772FD00900FE0BA
:100D5000306840F00100F4E740F004003060F7E74D
:100D6000FFF766FD0099411A41F28830814266D84A
:100D700030688007F4D50EE0FFF75AFD009007E0D9
:100D8000FFF756FD0099411A41F28830814256D84A
:100D900030688007F4D42FB1DBF8001021F08051C7
:100DA000CBF80010A069C8B33D49091D0968C1F31B
:100DB000810102294AD00228504607D0C8F86000B5
:100DC00000E03CE0FFF734FD04463BE04746C8F84E
:100DD0006000FFF72DFD064605E000BFFFF728FD88
:100DE000801B02282BD828688001F7D4D4E907019A
:100DF0000843A16A2E4A490802EB0141626A41EAAE
:100E00008211084394F82C1040EA0161C9F80010DF
:100E100001203866FFF70CFD044606E03EE000BF07
:100E2000FFF706FD001B022809D828688001F7D5C6
:100E300034E000BFFFF7FCFC001B022802D90320AE
:100E4000BDE8F88F28688001F4D427E00128F7D0A6
:100E5000D9F80000E26900F4800191421CD1226AB5
:100E600000F03F01914217D147F6C071626A01401C
:100E7000B1EB821F10D1A26A4FF0FF3300F4403172
:100E800003EB5202B1EB024F06D194F82C1000F0A4
:100E90007060B0EB016F01D00120D1E70020CFE7F7
:100EA0000438024000004742800E47420070004074
:100EB0000000FFFF10B5401EB0F1807F01D301207C
:100EC00010BD4FF0E02460610F21601700F065FC59
:100ED0000020A06107202061002010BD70477047EE
:100EE000F8B5016804460868CA684B6910F00F0F2E
:100EF0004FF0000559D003F0010602F49077374314
:100F000065D0C10705D0D10503D5616C41F0010161
:100F10006164410705D5D90703D0616C41F0020136
:100F20006164810705D5D90703D0616C41F00401E4
:100F30006164010707D502F02001314303D0616CE1
:100F400041F008016164616C00293AD0800604D543
:100F5000900602D5204600F0F1FA20684069616CE5
:100F6000C0F38010090700D460B3204600F0BFFA38
:100F700020684069400621D52068143050E8001FE1
:100F800021F0400140E80012002AF5D1E06BA8B141
:100F900072490165E06BFFF728FB002811D0E06B78
:100FA000016D01B0BDE8F040084783060FD59306F8
:100FB0000DD52046BDE8F84000F0C0BA2046FFF746
:100FC0008EFFF8BD2046FFF78AFF6564F8BD266BEB
:100FD0002023012E7ED1C6067CD5D6067AD5086898
:100FE0004868009048694FF0020640064DD5E26B14
:100FF000106840684FF480770004000C3AD0A18D4F
:10100000814237D9E085D069B8422DD020680C30B4
:1010100050E8001F21F4807140E80012002AF5D149
:101020002068143050E8001F21F0010140E8001250
:10103000002AF5D12068143050E8001F21F040014B
:1010400040E80012002AF5D184F842302563206878
:101050000C3050E8001F21F0100140E80012002A77
:10106000F5D1E06BFFF778FA6663A08DE18D401A49
:1010700081B206E0A18D8142A8D1D069B842A5D144
:1010800066632046FFF72AFFF8BDA08DE18D401A68
:1010900081B2E08D0028F7D00029F5D020680C300F
:1010A00050E8002F22F4907240E80027002FF5D17D
:1010B0002068143050E8002F22F0010240E8002799
:1010C000002FF5D184F84230256320680C3050E8B9
:1010D000002F00E006E022F0100240E80023002B81
:1010E000F3D1CDE705062BD5150629D594F8410097
:1010F0002128C9D1A068B0F5805F01D12069B0B1C5
:10110000206A411C2162216800784860E08C401E02
:101110000004000CE084B7D12068C16821F0800190
:10112000C1602068C16841F04001C160F8BD206A1B
:101130000088C0F308004860206A801C2062E5E750
:101140004006F3D55006F1D5CA68204622F0400289
:10115000CA6084F8413000F0EEF8F8BDE1140008F0
:1011600070B5040004D094F84100002510B106E0E9
:10117000012070BD84F84050204600F023F8242060
:1011800084F841002068C16821F40051C160204604
:1011900000F036FA2068016921F49041016120686D
:1011A000416921F02A0141612068C16841F4005180
:1011B000C1606564202084F8410084F842006563C2
:1011C000002070BD30B587B0044614216846FFF793
:1011D00029F92B4D226800212A4802230324AA4220
:1011E00023D1284A1032156845F48025156012680D
:1011F00002F480220592026842F002020260006856
:10120000CDE9021400F002000590A002CDE9000330
:101210000720049069461C48FFF70CFA002211468B
:101220002720FFF773FB272026E0184DAA4225D17F
:10123000144A1432156845F020051560126802F052
:1012400020020592026842F0400202600068CDE987
:10125000021400F0400005904FF48440CDE90003F3
:101260000820049069460A48FFF7E4F90022114675
:101270004720FFF74BFB4720FFF73AFB07B030BD95
:101280000048004030380240000402400014014091
:101290000018024070472DE9F843044690F84100D9
:1012A000984616460D46202802D00220BDE8F88355
:1012B00085B17EB100206064212084F84100FFF7F1
:1012C000B7FAA6848146E684A0682027B0F5805F3F
:1012D00002D003E00120E9E7206910B12E46002585
:1012E0000EE000260CE08021204600F00FFAA8B99D
:1012F000C6B116F8010B21684860E08C401EE084FE
:10130000E08C4B464FF00002CDF800800028EAD177
:101310004FF04001204600F0F9F940B184F84170E7
:101320000320C3E735F8020BC0F30800E3E784F8B5
:1013300041700020BAE77047FEE7000010B586B0A4
:1013400014216846FFF76EF81A480024016841F03E
:1013500040010160016801F040010591016841F020
:1013600001010160016801F001010591016841F08E
:1013700080010160016801F080010591016841F080
:10138000020101600068694600F00200059001203A
:10139000CDE9000408480294FFF74CF94FF4E0400F
:1013A000CDE90004694605480294FFF743F906B009
:1013B00010BD00003038024000000240000402402E
:1013C0000C4810B50A4901604FF4E1314160002139
:1013D00081600C22C160C0E904128161C161FFF724
:1013E000BFFE002803D0BDE81040FFF7B3B810BD22
:1013F00000480040280000200C4810B50A49016050
:101400004FF4E1314160002181600C22C160C0E9EC
:1014100004128161C161FFF7A3FE002803D0BDE87B
:101420001040FFF797B810BD001401407000002075
:10143000FEE7FEE770477047FFF700BA30B593B09C
:1014400030216846FEF7EEFF14210CA8FEF7EAFFF4
:101450001D480025016841F080510160006800F0DE
:10146000805011901948016841F480410160006882
:10147000022400F4804011900120009000040190AB
:101480008001CDE9064006200890A820CDE9090496
:1014900004200B906846FFF757FB08B172B6FEE7D1
:1014A0000CA90F2081E831004FF4A0500F904FF4A9
:1014B0008050109005210CA8FFF75AFA002801D09F
:1014C00072B6FEE713B030BD4038024000700040F5
:1014D0000248016841F470010160704788ED00E046
:1014E00010B5806B0021C185FFF7F9FC10BD0168C4
:1014F0000C3151E8002F22F4907241E80023002BB8
:10150000F5D10168143151E8002F22F0010241E8C1
:101510000023002BF5D1016B012909D101680C31A1
:1015200051E8002F22F0100241E80023002BF5D1F2
:10153000202180F8421000210163704708B590F81F
:101540004210222901D0022008BD82684FF4805346
:101550009A4201D1016921B1816A9A421BD04AB1F4
:101560000AE00268816A5268C2F308020A80816A4E
:10157000891C08E0026972B10268526802F07F02B9
:101580000A70816A491C8162C18D491E0904090CD7
:10159000C18503D01BE002685268F1E70168CA68A0
:1015A00022F02002CA600168CA6822F48072CA6010
:1015B00001684A6922F001024A61202180F8421044
:1015C00000214163026B012A03D0FFF763FE002074
:1015D00008BD016301680C3151E8002F22F01002B0
:1015E00041E80023002BF5D101680A68D20602D534
:1015F0000A6849680091818DFFF770FCE7E70000F9
:1016000070B5044600680169E26821F44051114355
:1016100001612169A068E2690843616911430843D7
:101620002168CA6849F20C639A430243CA60206881
:101630004169A26921F44071114341613149206837
:10164000884202D03049884202D1FFF73BFA01E0DC
:10165000FFF728FAE2690023192164253226B2F542
:10166000004F626828D0A0FB0101930F9200FEF7A3
:10167000FBFD0146B0FBF5F06FF01802504301EBA3
:10168000800006EB0010B0FBF5F000F0F002B1FBBB
:10169000F5F002EB0012B1FBF5F06FF018035843C0
:1016A00001EB800006EB0010B0FBF5F000F00F003E
:1016B00021681044886070BDA0FB010192185B4155
:1016C000FEF7D2FD0146B0FBF5F00201B1FBF5F0EB
:1016D0006FF01803584301EB800006EBC000B0FB2D
:1016E000F5F000F0F80002EB4002B1FBF5F05843D2
:1016F00001EB800006EBC000B0FBF5F000F0070046
:10170000D6E7000000100140001401402DE9F84325
:10171000984617460D460446089E24E0701C22D0C9
:10172000FFF786F8A0EB0800B0421AD8CEB12068C7
:10173000C168490717D5802D15D0402D13D00168F9
:10174000C94309070FD4016800254068009020466E
:10175000FFF7CDFE0820606484F840500120BDE80A
:10176000F8830320FBE72068006835EA000004D016
:101770000020B842D2D00020F1E70120F9E70000B4
:101780000148FFF7ADBB0000280000200148FFF72B
:10179000A7BB000070000020FEE70907090E002823
:1017A00004DB00F1E02080F80014704700F00F0027
:1017B00000F1E02080F8141D7047000030B50C46A1
:1017C00005000CD0022C0AD90548A11E0288284623
:1017D00000F00EF8291901F8020D000A487030BD1A
:1017E000240000200148C08870470000E80600205F
:1017F00010B558B1084C491E0BD310F8013B5340AB
:10180000DBB234F8133083EA1222F4E74FF6FF70AC
:1018100010BD104610BD0000E61B000810B5054CB9
:1018200004E000BF10F8013B5340E25C491EF9D2CE
:10183000104610BDE61A000808B5FFF707F8FFF7D5
:10184000FDFDFFF77BFDFFF7BBFDFFF7D5FD3E4E2E
:10185000DFF8F090DFF8F4B04FF000084FF0010A25
:10186000771C002400E01CB901214846FEF7DAFF8E
:1018700028B1454606F80480012806D05AE006F84B
:1018800004A0385D554610B154E03D5552E02E4A53
:10189000DBF80400DBF8081042F8020F516090609A
:1018A000D160FFF79FFF2849009008220A3140F2DB
:1018B000063000F04FF801461E232548009AFFF736
:1018C000EAFC1920FEF7A4FE204800EB840130F862
:1018D0002400498800F086F8022C04D11B48418975
:1018E000008900F07FF800F06DF8174ADBF80C0073
:1018F000DBF8101042F8020F51609060D160FFF7E2
:1019000071FF1149009008220A3140F2063000F0C0
:1019100021F801461E230E48009AFFF7BCFC19204F
:10192000FEF776FE0021084600F05CF83D55404683
:1019300006F80480641C012C95DB0A20FEF768FE83
:101940008FE700000000024000000020BA1A0008E3
:10195000700000202DE9F047194C074602F10900FC
:10196000E080894604F10800154680218046FEF794
:1019700037FDA520207065700020A4F13006A0700E
:10198000306BB063FF2204214046FFF747FF207110
:10199000316BB16386F83C00E0782A46401CE07069
:1019A0006773380AA073494604F10F00FEF7D3FCB1
:1019B000E1884046FFF702FF4046BDE8F08700009F
:1019C000E806002010B540F29E214FF4707000F040
:1019D00009F8BDE810404FF40C714FF4577000F057
:1019E00001B800002DE9F0410022144660F30B0419
:1019F000134664F31F432C4C104661F30B0044F86C
:101A0000023F60F30F026260A360E260FFF7EAFE4C
:101A10002549054640F2063708220A313846FFF7C5
:101A200099FF01461E232A462048FFF734FC19205F
:101A3000FEF7EEFD1C4DAD1CE87820F0F0001030F4
:101A4000E8702068A0606068E060FFF7CBFE0646A3
:101A5000082205F108013846FFF77CFF01461E23E6
:101A600032461248FFF717FC1920FEF7D1FDE8783F
:101A700020F0F000E8702068A0606068E060FFF788
:101A8000B1FE0446082205F108013846FFF762FF5F
:101A900001461E2322460548FFF7FDFBBDE8F04145
:101AA0001920FEF7B5BD00000000002070000020E6
:101AB0004FF04070E1EE100A7047880430024F008A
:101AC0000000000000004F000000000000000000C7
:101AD00000000000000001020304060708090000DE
:101AE000000001020304005EBCE2613FDD83C29C92
:101AF0007E20A3FD1F419DC3217FFCA2401E5F01EC
:101B0000E3BD3E6082DC237D9FC1421CFEA0E1BF9D
:101B10005D0380DE3C62BEE0025CDF81633D7C22CF
:101B2000C09E1D43A1FF4618FAA427799BC584DAFD
:101B30003866E5BB5907DB856739BAE406581947AB
:101B4000A5FB7826C49A653BD987045AB8E6A7F95D
:101B50001B45C6987A24F8A6441A99C7257B3A648F
:101B600086D85B05E7B98CD2306EEDB3510F4E10BD
:101B7000F2AC2F7193CD114FADF3702ECC92D38D6B
:101B80006F31B2EC0E50AFF1134DCE90722C6D331D
:101B9000D18F0C52B0EE326C8ED0530DEFB1F0AE4F
:101BA0004C1291CF2D73CA947628ABF5174908567D
:101BB000B4EA6937D58B5709EBB536688AD495CB2B
:101BC0002977F4AA4816E9B7550B88D6346A2B75DD
:101BD00097C94A14F6A8742AC896154BA9F7B6E80F
:101BE0000A54D7896B350000891112239B32244691
:101BF000AD573665BF74488CC19D5AAFD3BE6CCA11
:101C0000E5DB7EE9F7F88110080193331A22A55627
:101C10002C47B7753E64C99C408DDBBF52AEEDDAF0
:101C200064CBFFF976E802218B3010029913266706
:101C3000AF763444BD554AADC3BC588ED19F6EEBD0
:101C4000E7FA7CC8F5D983310A2091121803A777E7
:101C50002E66B5543C45CBBD42ACD99E508FEFFBB0
:101C600066EAFDD874C904428D5316619F70200442
:101C7000A9153227BB364CCEC5DF5EEDD7FC688890
:101C8000E1997AABF3BA85520C4397711E60A114A7
:101C90002805B3373A26CDDE44CFDFFD56ECE99870
:101CA0006089FBBB72AA06638F7214409D51222586
:101CB000AB343006B9174EEFC7FE5CCCD5DD6AA950
:101CC000E3B8788AF19B87730E6295501C41A33567
:101CD0002A24B1163807CFFF46EEDDDC54CDEBB930
:101CE00062A8F99A708B088481951AA793B62CC2C2
:101CF000A5D33EE1B7F04008C919522BDB3A644E38
:101D0000ED5F766DFF7C899400859BB712A6ADD2FE
:101D100024C3BFF136E0C1184809D33B5A2AE55E17
:101D20006C4FF77D7E6C0AA583B4188691972EE3DD
:101D3000A7F23CC0B5D14229CB38500AD91B666FF7
:101D4000EF7E744CFD5D8BB502A499961087AFF3BE
:101D500026E2BDD034C1C3394A28D11A580BE77FD7
:101D60006E6EF55C7C4D0CC685D71EE597F4288019
:101D7000A1913AA3B3B2444ACD5B5669DF78600CB7
:101D8000E91D722FFB3E8DD604C79FF516E4A9907E
:101D90002081BBB332A2C55A4C4BD7795E68E11C97
:101DA000680DF33F7A2E0EE787F61CC495D52AA15D
:101DB000A3B03882B193466BCF7A5448DD59622D77
:101DC000EB3C700EF91F8FF706E69DD414C5ABB13E
:101DD00022A0B9923083C77B4E6AD5585C49E33D57
:101DE0006A2CF11E780F0000081E00080000002079
:101DF00028000000C4010008301E00082800002050
:101E000030280000E0010008000100000000000090
:101E100000000000000000000000000001000000C1
:101E200010000000000000000024F400FFFF00008C
:040000050800018965
:00000001FF
